:020000040800F2
:1000000000040020D30100080503000807030008CE
:100010000B0300080F030008130300080000000092
:1000200000000000000000000000000017030008AE
:1000300019030008000000001B0300081D0300084E
:10004000F3010008F3010008F3010008970D000810
:10005000F3010008F3010008F3010008F3010008B0
:10006000F3010008F3010008F3010008F3010008A0
:10007000F3010008F3010008F3010008F301000890
:10008000F3010008F3010008F3010008F301000880
:10009000F3010008F3010008F3010008F301000870
:1000A000F3010008F3010008F3010008F301000860
:1000B000BD050008F3010008F3010008F301000882
:1000C000F3010008F3010008F3010008F301000840
:1000D000F3010008B1120008CD120008E91200086F
:1000E000F3010008B50D0008F3010008F301000852
:1000F000F3010008F3010008F3010008F301000810
:10010000F30100082B5A0008F3010008F30100086E
:10011000EB120008ED120008F3010008F3010008DB
:10012000F3010008F3010008F30100084B5A00082E
:1001300000F002F800F03CF80AA090E8000C8244BD
:100140008344AAF10107DA4501D100F031F8AFF29A
:10015000090EBAE80F0013F0010F18BFFB1A43F0A5
:1001600001031847608D0000808D0000103A24BF05
:1001700078C878C1FAD8520724BF30C830C144BF0C
:1001800004680C607047000000230024002500264E
:10019000103A28BF78C1FBD8520728BF30C148BFEA
:1001A0000B6070471FB508F0BBFB1FBD10B510BD3D
:1001B00008F0F6F81146FFF7F5FF00F02DF808F00B
:1001C00027F903B4FFF7F2FF03BC08F02BF9000096
:1001D00070470B4880470B4981F308880A4800475D
:1001E000FEE7FEE7FEE7FEE7FEE7FEE7FEE7FEE7E7
:1001F000FEE7FEE705480649044A064B7047000043
:10020000D1010008D806002031010008D8040020E0
:10021000D8060020D8040020ADF58C6D07F087FFCC
:1002200000F03FFA01221AA18BA802F01EFD00BBCC
:1002300018A008F01FF813221DA102A802F040FD2B
:1002400090B91EA008F016F802A922A003F0FEFE45
:10025000002806DD694601A801F068F824A008F02E
:1002600009F802A802F0F2FF012209A1002002F021
:10027000FCFC0CE000BF2249086800BF00BF204919
:100280000968091A4FF47A729142F8D300BFF1E776
:100290000000000053444653204D6F756E74207368
:1002A00075636365737366756C6C790A0000000092
:1002B00031737466696C652E7478740066696C6558
:1002C000206F70656E207375636365737366756CFC
:1002D0006C790A00466972737420737472696E6770
:1002E00020696E206D792066696C650A0000000047
:1002F00066696C65207772697474656E0A00000027
:100300000C000020704700BFFEE700BFFEE700BF03
:10031000FEE700BFFEE77047704770477047000078
:10032000074A126812F0807F08D000BF4FF0604289
:100330001268002AFAD04FF060431870704700002E
:10034000FCED00E030B585B004460D46684606F089
:1003500089F99348844202D09248844207D1019897
:1003600028604FF6FF706860002005B030BDB4F122
:10037000804F0ED08C4884420BD08C48844208D0E9
:100380008B48844205D08B48844202D08A488442FC
:1003900006D1039828604FF6FF7068600020E4E7FC
:1003A0000220E2E72DE9F047804614461D46D8F8C2
:1003B000000008F012FA064622462B4608F020FA02
:1003C00009D20020C8F81000C8F80C00C8F81400C2
:1003D0000320BDE8F087002213462046294608F096
:1003E00093F908D10020C8F81000C8F80C00C8F82C
:1003F00014000420EDE7D8F80400B0F5803F04D2E3
:10040000D8F80400401CC8F804000020C8F8100008
:1004100000BFD8F81000401CD8F80010B1FBF0F075
:10042000C8F80C00D8F80C0008F0D7F906462246A8
:100430002B4608F011F8814608F0A2F9C8F80C0024
:10044000D8F81000401CC8F81000D8F80410D8F8EC
:100450000C00884206D9D8F80800401CD8F81010C3
:100460008142D6D9D8F80800401CD8F81010814233
:1004700008D90020C8F81000C8F80C00C8F814000B
:100480000420A6E72046294608F07AF9C8F81400A7
:1004900000209EE710B504464148844204D1012162
:1004A000C01406F04CF936E0B4F1804F04D10121BC
:1004B000084606F051F92EE03C48844204D101215F
:1004C000022006F049F926E03948844204D101218E
:1004D000042006F041F91EE03348844204D1012192
:1004E000082006F039F916E03248844204D101218F
:1004F000102006F031F90EE02F48844204D101218A
:10050000202006F029F906E02648844203D1012183
:10051000401406F014F9002010BD10B50446204820
:10052000844204D10021C01406F009F936E0B4F188
:10053000804F04D10021012006F00EF92EE01B4867
:10054000844204D10021022006F006F926E0184872
:10055000844204D10021042006F0FEF81EE0124877
:10056000844204D10021082006F0F6F816E0114874
:10057000844204D10021102006F0EEF80EE00E486F
:10058000844204D10021202006F0E6F806E0054868
:10059000844203D10021401406F0D1F8002010BDA0
:1005A000002C014000340140000C004000040040D9
:1005B00000080040001000400014004010B5012168
:1005C000880707F074F84A480068401C48490860EA
:1005D0004848006820B147480068401E4549086007
:1005E000AFF3008010BD00B58FB001A94FF080407F
:1005F000FFF7A8FE0022404B01A8FFF7D3FE4FF003
:100600008040FFF747FF0020ADF83600ADF832001C
:1006100040F2E730ADF83400384901980968B1FB81
:10062000F0F03749484335490968B1FBF0F0401E06
:1006300080B2ADF8300000208DF838000CA94FF0E2
:10064000804006F0F0FA08A806F036FD0020ADF86C
:100650002000ADF8260008A94FF0804006F0FCFA13
:100660000121880707F00FF801221146900706F0D4
:100670005AFD4FF4A06006F0EFF91C208DF81C0025
:1006800001208DF81F0000208DF81D008DF81E0040
:1006900007A806F0E6F90121880706F029FD0FB04A
:1006A00000BD10B51748007800B110BD4FF4803080
:1006B00005F0FFFE00BF05F03BFF0028FBD0FFF771
:1006C00092FF01200F49087000BFEEE710B50D48FA
:1006D000007800B910BD0121880706F009FD00BFB0
:1006E000F8E710B500214FF0804006F001FD10BD85
:1006F0000C0000201000002080842E41B48E0008E1
:1007000040420F001400002010B501460869801E09
:100710000861002805DC08690C3008614869401E42
:1007200048616423486990FBF3F04A69D31702EBF0
:100730009373C0EBA3004FF4C87492FBF4F303442B
:1007400040F26F14086960430C2490FBF4F01844E5
:10075000CB68034440F26D1402FB0430F84BC01A1E
:1007600000EB40008B6803EBC000C0EB00104B684F
:1007700003EB8000C0EB00100B6803EB800010BDA2
:10078000F0B58DB004463022EE4901A807F07EFD99
:100790006069451E642195FBF1F12846EA1705EBD7
:1007A0009272C1EBA2014FF4C87295FBF2F28F185E
:1007B0006069C11700EB91718910B0EB810112D112
:1007C0006422616991FBF2F302FB131131B99200CB
:1007D000616991FBF2F302FB131121B9216902292E
:1007E00001DD012600E0002640F26D1005FB0071DE
:1007F0002069401E01AA52F820000844E16808441C
:100800000644072096FBF0F100FB1160A0610DB0DB
:10081000F0BD70B5044606F0B1FF2046FFF7B0FF0B
:100820002046FFF771FF054606F073FF06F0A6FFAE
:10083000C548006820B144F22131042007F023F8B4
:10084000002070BD10B504466CB9012005F0FEFE15
:1008500000BF612005F050FE0028FAD04FF4007070
:1008600005F0F7FE0EE0012C0CD1012005F0D8FEBA
:1008700000BF412005F040FE0028FAD04FF4807000
:1008800005F0E7FE012005F0EAFE06F07EFF41F2EA
:100890003421042006F0F7FF10BD2DE9F041074692
:1008A0000C46AA48B7FBF0F6B7FBF0F100FB117855
:1008B0004FF4616098FBF0F0A0604FF4616098FB2A
:1008C000F0F100FB11803C2190FBF1F060604FF4EF
:1008D000616098FBF0F100FB11803C2190FBF1F28C
:1008E00001FB1200206040F2B27509E015F0030F21
:1008F00002D14FF4B77001E040F26D10361A6D1C52
:1009000015F0030F02D14FF4B77001E040F26D1003
:10091000B042EBDD65616069C11700EB9171891030
:10092000B0EB810102D11D2089494860012505E015
:10093000681E874951F82000361A6D1C681E8449CC
:1009400051F82000B042F3DD1C2048602561701C86
:10095000E0602046FFF714FFBDE8F08170B5044663
:1009600006F0CEFE054621462846FFF796FF70BDED
:1009700070B588B00446012601214FF0C05005F043
:10098000EBFE012006F0BDFF042006F081FF0546C6
:10099000A5F58640213814D144F221306A49086017
:1009A00014B90020FFF74EFF06F0EFFE022006F01C
:1009B00022FF4FF4003007F099F801A8FFF7CEFFAF
:1009C0002FE0A5F59050343814D141F234205E491F
:1009D000086014B90020FFF735FF06F0D6FE0220AC
:1009E00006F009FF4FF4003007F080F801A8FFF788
:1009F000B5FF16E000205449086000262046FFF7A6
:100A000021FF01200490079005900020069003909C
:100A10000290019001A8FFF7FCFE41F234204A4900
:100A2000086016B9002008B070BD47480068FAE7B2
:100A300030B587B0054600240020039009E0285D0A
:100A40003038039901EB810100EB41000390601CF9
:100A5000C4B2285D302802DB285D3928EFDD601C38
:100A6000C4B20020049009E0285D3038049901EBFD
:100A7000810100EB41000490601CC4B2285D302865
:100A800002DB285D3928EFDD601CC4B20020059030
:100A900009E0285D3038059901EB810100EB410048
:100AA0000590601CC4B2285D302802DB285D39281F
:100AB000EFDD601CC4B20020029009E0285D3038F0
:100AC000029901EB810100EB41000290601CC4B26D
:100AD000285D302802DB285D3928EFDD601CC4B2B8
:100AE0000020019009E0285D3038019901EB810177
:100AF00000EB41000190601CC4B2285D302802DB8D
:100B0000285D3928EFDD601CC4B20020009009E0A8
:100B1000285D3038009901EB810100EB4100009025
:100B2000601CC4B2285D302802DB285D3928EFDD67
:100B3000601CC4B26846FFF76CFE07B030BD000011
:100B40008BFA0A00308900081C0000208051010047
:100B50003800002030B502460AB10C2A01DD002021
:100B600030BD01F5FA63D81703EB90708010B3EB3A
:100B7000800006D11846642490FBF4F504FB1500B0
:100B800040B901F5FA604FF4C87490FBF4F504FB2A
:100B9000150008B9012000E0002000EB40008D4C5A
:100BA00004EB8004501E205CDAE710B5014601F525
:100BB000FA62D01702EB90708010B2EB800007D180
:100BC00001F5FA60642390FBF3F403FB140040B9D1
:100BD00001F5FA604FF4C87390FBF3F403FB1400C3
:100BE00010B94FF4B77001E040F26D1080B210BD43
:100BF00070B504464FF4003006F078FF03207649C4
:100C0000087001204870002088704FF4003073494C
:100C10000860002008710820487184B90021012073
:100C200006F048FD00206C49C870084605F019FF21
:100C300000206A498871084606F0CBFE40E001209A
:100C40006549C870084605F00CFF012063498871AA
:100C5000084606F0BEFE012C01D1614D23E0022CB6
:100C600001D1604D1FE0032C01D15F4D1BE0042C2E
:100C700001D15E4D17E0052C02D14FF6FF7512E051
:100C8000062C02D147F6FF750DE0072C02D143F682
:100C9000FF7508E0082C02D141F6FF7503E0092C2E
:100CA00001D140F6FF7506F070FD284606F03EFDC6
:100CB00006F064FD0121084606F0FCFC06F05EFD2E
:100CC00070BD10B5044614B1012C12D100E000BF74
:100CD000012006F074FD00BF012006F066FD00282B
:100CE000FAD00021022006F0E5FC022006F067FDA4
:100CF00000E000BF00BF4FF4003006F0F7FE4FF4F5
:100D00000030364908600020087108204871012031
:100D10008871084606F05DFE4FF4A06005F09CFE69
:100D200029202D490870012048708870C870084635
:100D300005F097FE10BD2DE9F04105460C4628460A
:100D4000FFF7BFFFA078E17801EB410100EBC100A4
:100D5000C0EB0010617801EB8000C0EB001021783F
:100D600001EB800615B1012D11D100E000BF06F0A6
:100D7000C7FC8719384606F0E7FC06F0FFFC0121A6
:100D8000022006F097FC022006F019FD00E000BFEB
:100D900000BFBDE8F08110B5012006F01BFD40B199
:100DA000012006F028FD4FF4003006F09FFEAFF35F
:100DB000008010BD10B5022006F00CFD20B102200D
:100DC00006F019FDAFF300804FF4003006F08EFE00
:100DD00010BD000020000020680000206C000020F2
:100DE000FFFF0F00FFFF0700FFFF0300FFFF0100F1
:100DF00010B504464348844204D10121042005F083
:100E00009EFC2EE04048844204D10121082005F0D8
:100E100096FC26E03D48844204D10121102005F0D3
:100E20008EFC1EE03A48844204D10121202005F0C6
:100E300086FC16E03748844204D10121402005F0A9
:100E40007EFC0EE03448844204D10121802005F06C
:100E500076FC06E03148844203D10121801505F07B
:100E60006EFC10BD2DE9F04107460C4615461E46A6
:100E70000CB9BDE8F0813846FFF7BAFF2848C570C5
:100E8000048086700146384605F0C6F900BFF0E7D9
:100E900010B504461B48844204D10021042005F00B
:100EA0004EFC2EE01848844204D10021082005F0B1
:100EB00046FC26E01548844204D10021102005F0AC
:100EC0003EFC1EE01248844204D10021202005F09F
:100ED00036FC16E00F48844204D10021402005F082
:100EE0002EFC0EE00C48844204D10021802005F045
:100EF00026FC06E00948844203D10021801505F054
:100F00001EFC10BD00080140000C01400010014013
:100F10000014014000180140001C01400020014065
:100F2000740000200146F24A914200D10020F14AAB
:100F3000914200D10120F04A914200D10220EF4AB3
:100F4000914200D10420EE4A914200D10520704721
:100F500070477047704710B504460121480405F0FA
:100F6000FBFB34B9032318220C21E648FFF77AFF74
:100F700007E0012C05D1032318226021E248FFF786
:100F800071FF10BD10B504460121880305F0D7FBA1
:100F90006CB9032318224FF40071DA48FFF762FF9F
:100FA000032304221102D748FFF75CFF07E0012C5E
:100FB00005D103231822C021D448FFF753FF10BDE9
:100FC0000146CB4A914200D1D148CA4A914200D150
:100FD000D048C94A914200D1CF48C84A914200D175
:100FE000CE48C74A914200D1CD487047F0B585B090
:100FF00004460D4616462046FFF7E2FF07460196D7
:10100000BB48844212D12846FFF7BCFF25208DF84B
:1010100000000020ADF810000C20ADF80E000020FC
:10102000ADF80C00ADF80A00ADF80800B1488442F4
:1010300012D12846FFF78FFF26208DF800000020F0
:10104000ADF810000C20ADF80E000020ADF80C003B
:10105000ADF80A00ADF80800A748844212D128462E
:10106000FFF778FF27208DF800000020ADF8100072
:101070000C20ADF80E000020ADF80C00ADF80A0011
:10108000ADF808009D48844212D12846FFF761FF61
:1010900034208DF800000020ADF810000C20ADF8D1
:1010A0000E000020ADF80C00ADF80A00ADF8080005
:1010B0009348844212D12846FFF74AFF35208DF825
:1010C00000000020ADF810000C20ADF80E0000204C
:1010D000ADF80C00ADF80A00ADF808000120387337
:1010E0000021204606F0CDFD204606F013FD01A9A3
:1010F000204606F058FD0121204606F0C2FD0122DF
:1011000040F22551204606F0C8FD01208DF803006D
:1011100000208DF801002046FFF704FF8DF8020043
:10112000684605F09EFC05B0F0BD30B504460025CC
:101130002046FFF745FF0346D88800280FDD588971
:101140009988884201D10020588159891868405CEB
:1011500045B25889401C5881D888401ED880E8B2D2
:1011600030BD10B504462046FFF72AFF0346D88855
:101170009988884201D1012000E00020C0B210BD52
:10118000F0B507460D463846FFF71AFF0346DE88DE
:101190005C890DE09888A04200D100241868005DA9
:1011A000A84201D10120F0BD601C84B2701E86B23D
:1011B000002EEFDC0020F6E710B503461846FFF7D7
:1011C000FFFE0446E08808B9012000E00020C0B21C
:1011D00010BDF0B507460D46164600243846FFF709
:1011E000EBFF40B90A213846FFF7CAFF28B9384655
:1011F000FFF7B7FF08B90020F0BD0BE03846FFF756
:1012000094FF2855285D0A2802D1601C84B204E0AE
:10121000601C84B2701EA042F0DC00BF0020285584
:101220002046E9E710B504462046FFF7C9FE03460D
:101230000020D8801881588110BD30B504460B4677
:101240002046FFF7BDFE0546287B00B930BD00BF34
:10125000208810F0800FFBD0A38000BFF6E770B5A8
:1012600005460C462846FFF7ABFE0646307B00B924
:1012700070BD04E014F8011B2846FFF7DEFF20785C
:101280000028F7D100BFF3E7C28883889A420EDABC
:10129000028983889A4201D100220281038902686F
:1012A000D1540289521C0281C288521CC2807047EC
:1012B00010B540F225510E4806F0B1FD28B119488D
:1012C0000088C1B21248FFF7DFFF10BD10B540F231
:1012D0002551084806F0A3FD28B113480088C1B283
:1012E0000C48FFF7D1FF10BD7047704770470000F2
:1012F000003801400044004000480040004C0040DD
:10130000005000400008014000140140000C014062
:10131000780000208800002098000020A80000200D
:10132000B800002004380140044400407CB5044665
:101330000D4601AA69464EA002F0FAF906460EB122
:1013400030467CBD01988069801E019989784843A8
:101350004008206001988078009948434008286040
:101360000020EEE77CB504460D4601AA694641A07F
:1013700002F0DEF906460EB130467CBD0198806968
:10138000801E019989784843400820600198807840
:1013900000994843400828600020EEE72DE9F04F0F
:1013A000C3B081460D46D9F80C802E464FF0000A96
:1013B000A8EB0607029715B1B8F1000F03D1002082
:1013C00043B0BDE8F08F45450BD90021484602F0F7
:1013D00020F804460CB12046F2E7484602F02AFA0B
:1013E000EEE731E0B7F5807F02D94FF4807000E07E
:1013F000384683463146484602F00BF804460CB1A5
:101400002046DDE701AB5A4603A9484601F007FD37
:1014100004460CB12046D3E75146484601F0F9FF97
:1014200004460CB12046CBE76B465A4603A9484612
:1014300001F0C4FD04460CB12046C1E7A7EB0B0741
:101440000198064400988244002FCBD14846029967
:1014500001F0DFFF04460CB12046B1E7484602F038
:10146000E9F904460021484601F0D3FFA8E700004F
:10147000303A0000313A000070B50446012514B13D
:10148000012C05D103E003F02AFE054602E001E04D
:10149000012500BF00BF284670BD70B50446012578
:1014A00014B1012C05D103E003F05EFE054602E015
:1014B00001E0012500BF00BF284670BD2DE9F041C5
:1014C00004460D4616461F464FF0040814B1012C81
:1014D00008D106E03A463146284604F025F8804611
:1014E00003E002E04FF0040800BF00BF4046BDE843
:1014F000F0812DE9F04105460E4617461C464FF097
:10150000040814B90420BDE8F08115B1012D08D1FB
:1015100006E022463946304604F0F4F9804603E0FE
:1015200002E04FF0040800BF00BF4046EBE72DE9A2
:10153000F04104460D461646042714B1012C07D18C
:1015400005E03146284604F00AFA074602E001E0C9
:10155000042700BF00BF3846BDE8F081004870474F
:101560000000FC4270B503460C4603E014F8015B32
:1015700003F8015B1500A2F10102F7D170BD30B58F
:10158000034601E003F8011B1400A2F10102F9D1A6
:1015900030BDF0B503461C460D46002000BF1600C6
:1015A000A2F1010207D014F8017B15F801CBA7EBDB
:1015B0000C063000F3D0F0BD024600E0521C10785B
:1015C00010B110788842F9D1107870472DE9F041B8
:1015D000044600272079F8B1256B607801232A465C
:1015E00004F13401FFF785FF08B1012714E0002062
:1015F0002071606A281AE16988420DD2E67809E014
:10160000E0690544607801232A4604F13401FFF7BC
:1016100070FF761E022EF3D23846BDE8F08170B519
:1016200004460D460026206BA84210D02046FFF746
:10163000CDFF06465EB9607801232A4604F13401E5
:10164000FFF73CFF10B14FF0FF3501262563304610
:1016500070BD70B504462046FFF7B8FF0546F5BBE0
:101660002078032850D1607901284DD14202002111
:1016700004F13400FFF783FF552184F83212AA21C8
:1016800084F8331252213420015584F83510612139
:1016900084F83610412184F83710722184F818122A
:1016A00084F81912412184F81A12612184F81B125E
:1016B000206984F81C022069010A84F81D1220693F
:1016C000010C84F81E122069010E84F81F12E068D4
:1016D00084F82002E068010A84F8211200E01AE090
:1016E000E068010C84F82212E068010E84F82312ED
:1016F000206A401C20636078012304F13401226BCE
:10170000FFF7F7FE00206071607800221146FFF7B6
:101710000EFF00B10125284670BD0246891E906962
:10172000801E884201D8002070479378D06A01FB60
:101730000300F9E72DE9F04705460C46022C02D3D9
:10174000A869A04202D84FF0010969E04FF0FF39C3
:101750002878012804D002282ED003285CD13FE04D
:10176000274607EB5707686A00EB57212846FFF723
:1017700056FF00B153E038467F1CC0F3080105F165
:10178000340010F80180686A00EB57212846FFF703
:1017900046FF00B143E0C7F3080105F13400405CA7
:1017A00048EA002814F0010F02D04FEA181001E0B7
:1017B000C8F30B00814632E0686A00EB142128462A
:1017C000FFF72DFF00B12AE040F2FF1000EA4401CC
:1017D00005F134000E183078717840EA01291EE0D6
:1017E000686A00EBD4112846FFF719FF00B116E034
:1017F00040F2FF1000EA840105F134000E18F07881
:101800000006B17840EA0140717840EA0120317861
:10181000084320F0704902E04FF0010900BF00BF0B
:101820004846BDE8F0872DE9F04705460E461746C5
:10183000022E02D3A869B04202D84FF0020890E00D
:101840002878012804D0022844D003287ED159E00A
:10185000B14609EB5909686A00EB59212846FFF7A0
:10186000DEFE8046B8F1000F00D079E0484609F16D
:101870000109C0F3080105F134000C1816F0010F3E
:1018800004D0F9B2207861F31F1000E0F8B22070A4
:1018900001202871686A00EB59212846FFF7BFFE36
:1018A0008046B8F1000F00D05AE0C9F3080105F1F5
:1018B00034000C1816F0010F02D0C7F3071005E032
:1018C000207800F0F000C7F30321084320700120C6
:1018D000287145E0686A00EB16212846FFF79FFE55
:1018E0008046B8F1000F00D03AE040F2FF1000EA65
:1018F000460105F134000C182770380A6070012089
:1019000028712DE0686A00EBD6112846FFF787FEA4
:101910008046B8F1000F00D022E040F2FF1000EA4C
:10192000860105F134000C18E0780006A17840EA41
:101930000140617840EA01202178084300F07040BE
:1019400007432770380A6070380C00E005E0A0708B
:10195000380EE0700120287102E04FF0020800BF4D
:1019600000BF4046BDE8F0872DE9F04104460E4631
:10197000022E02D3A069B04201D8022727E0002737
:1019800021E031462046FFF7D5FE054605B91DE0AA
:10199000012D01D1022719E0681C01D1012715E0B2
:1019A000002231462046FFF73EFF074607B10DE013
:1019B0002069401C06D02069401C2061607940F0FD
:1019C000010060712E46A069B042DAD800BF3846E7
:1019D000BDE8F0812DE9F04704468946B9F1000FD2
:1019E00006D1E76817B1A069B84215D8012713E0FE
:1019F00049462046FFF79EFE0646022E02D20120EF
:101A0000BDE8F087701C01D13046F9E7A069B0420B
:101A100001D93046F4E74F463D4600BF6D1CA06932
:101A2000A84204D80225BD4201D90020E8E7294692
:101A30002046FFF77FFE064606B909E0701C01D07C
:101A4000012E01D13046DBE7BD42E7D10020D7E7C8
:101A500000BF6FF0704229462046FFF7E4FE804643
:101A6000B8F1000F08D1B9F1000F05D02A46494658
:101A70002046FFF7D8FE8046B8F1000F0BD1E56095
:101A80002069401C0FD02069401E2061607940F021
:101A90000100607107E0B8F1010F02D14FF0FF3093
:101AA00000E0012005462846AAE72DE9F04104465A
:101AB0000E46E680A568012D03D020688069A84203
:101AC00002D80220BDE8F0812DB9206800780328F3
:101AD00001D12068856A45B920680089B04201D8E3
:101AE0000220EFE72068876A1EE0206880784FEACE
:101AF000001812E029462068FFF71CFE0546681C06
:101B000001D10120DEE7022D03D320688069A842BD
:101B100001D80220D6E7A6EB08064645EAD22946B8
:101B20002068FFF7FAFD0746E5600FB90220C9E714
:101B300007EB161020612068343006F00F0100EB2F
:101B4000411060610020BDE72DE9F0410446884660
:101B5000E088461C3004000C01D0206910B9042034
:101B6000BDE8F08116F00F0F6AD12069401C20619A
:101B7000E06828B920680089B04261D80420EFE706
:101B800020688078401E10EA161F59D1E16820684D
:101B9000FFF7D0FD0546012D01D80220E0E7681CC3
:101BA00001D10120DCE720688069A84242D8B8F161
:101BB000000F01D10420D3E7E1682068FFF70AFF96
:101BC00005460DB90720CBE7012D01D10220C7E75B
:101BD000681C01D10120C3E72068FFF7F7FC08B1BA
:101BE0000120BDE7216801F134004FF400720021AB
:101BF000FFF7C5FC29462068FFF78FFD21680863C1
:101C000000270EE00120216808712068FFF7DEFC44
:101C100008B10120A4E72068006B401C216808631C
:101C20007F1C20688078B842ECD82068006BC01B0D
:101C300021680863E56029462068FFF76EFD206192
:101C4000E6802068343006F00F0100EB411060613F
:101C5000002085E72DE9F04104460E46002120468C
:101C6000FFF723FF0546EDB9002700BF2169206873
:101C7000FFF7D5FC054605B113E060690078E5285B
:101C800002D06069007820B9781C0746B04201D1C3
:101C900007E0002701212046FFF756FF0546002DEB
:101CA000E4D000BF042D00D107252846BDE8F0810F
:101CB00010B502468C7ECB7E44EA03201378032BBA
:101CC00005D10C7D4B7D44EA032340EA034010BD5F
:101CD00081760A0AC2760A0C02750A0E42757047AE
:101CE0002DE9F04706460C46207820F04000401EC3
:101CF00000EB800101EBC0084FF00009012700BF95
:101D0000FF4810F80900205CFD4911F80910214432
:101D1000497840EA012597B1284602F016FB0746AC
:101D2000B8F1FF0F08D2414608F1010836F811005A
:101D300002F00BFBB84208D00020BDE8F087A5F503
:101D40007F40FF3801D00020F7E709F1010081460C
:101D50000D28D5D3207810F0400F05D027B136F8E4
:101D6000180008B10020E8E70120E6E7F0B50446D6
:101D7000087800F03F00401E00EB800707EBC00230
:101D80000025012600BFDE48405D085CDC4F7F5D1A
:101D90000F447F7840EA07234EB1FF2A01D3002089
:101DA000F0BD1E461046521C24F8103005E0A3F585
:101DB0007F40FF3801D00020F2E7681C05460D285F
:101DC000E1D3087810F0400F06D0FF2A01D300209D
:101DD000E6E7002024F812000120E1E7F0B5044610
:101DE0001D464D730F27CF7200270F738F76BC46A9
:101DF00081F81BC0571E07EB870C0CEBC7060027AA
:101E000038463B4600BFA0F57F47FF3F03D037462B
:101E1000761C34F81700DFF8E8C21CF803C001F89C
:101E20000C000712DFF8D8C21CF803C08C448CF8F1
:101E3000017008B94FF6FF705F1C3B460D2FE2D3CF
:101E4000A0F57F47FF3F02D034F816700FB942F07B
:101E500040020A70F0BD2DE9FF4F83B081469046E5
:101E60001D460B2248460499FFF77CFB052D18D927
:101E70002F4611E038F802BB00240BE0584667F308
:101E80005F0007464FEA6B0B17F4803F01D09D4877
:101E90004740641C102CF1D3B8F800000028E9D1A9
:101EA0003D46072400BF05F00F0000F1300ABAF1EB
:101EB000390F03DD0AF1070000F0FF0A2046641E17
:101EC00001A901F800A02D09002DECD17E200855B4
:101ED000002600E0761CA64203D219F8060020284E
:101EE000F8D100BF082C04D22046641C01A9085C6C
:101EF00000E02020C2B23046761C09F80020082EEF
:101F0000F0D307B0BDE8F08F30B5014600200B22BA
:101F100000BF431003EBC01411F8015B6319D8B282
:101F2000531E1A00F5D130BD2DE9F04704460021BB
:101F30002046FFF7BAFD8046B8F1000F02D04046B8
:101F4000BDE8F0874FF0FF09CA464FF6FF702084C6
:101F500000BF21692068FFF762FB8046B8F1000FDF
:101F600000D057E065692E7816B94FF0040851E0AB
:101F7000E87A00F03F07E52E04D017F0080F07D0ED
:101F80000F2F05D04FF0FF094FF6FF70208439E086
:101F90000F2F1CD1E06978B316F0400F06D095F8EA
:101FA0000DA026F04006B146E08820844E450AD1B7
:101FB000687B504507D12946E069FFF791FE10B1D3
:101FC000A9F1010000E0FF2000F0FF091AE0B9F1DB
:101FD000000F05D12846FFF797FF504500D119E0C3
:101FE000A069C07A10F0010F07D10B222846A16921
:101FF000FFF7CFFA08B90DE004E04FF0FF094FF604
:10200000FF70208400212046FFF79EFD8046B8F136
:10201000000F9ED000BF404692E72DE9F05F0446D6
:102020008A464FF0FF09CB4604274EE0216920681D
:10203000FFF7F5FA074607B14AE065692E780EB951
:10204000042745E0E87A00F03F08E52E09D000BFFC
:1020500028F02000082801D1012000E00020504590
:1020600002D04FF0FF0929E0B8F10F0F1AD116F096
:10207000400F06D095F80DB026F04006B146E08836
:1020800020844E450AD1687B584507D12946E0692E
:10209000FFF76CFE10B1A9F1010000E0FF2000F095
:1020A000FF090BE0B9F1000F04D12846FFF72CFF20
:1020B000584502D04FF6FF70208409E000212046E9
:1020C000FFF742FD074607B102E020690028ADD1C5
:1020D00000BF0FB1002020613846BDE8F09F2DE918
:1020E000FE4F0446D4F81880D4F81C900C224146C8
:1020F0006846FFF737FA9DF80B0010F0200F03E059
:10210000E08900082110010002D00620BDE8FE8F02
:102110009DF80B0010F0010F23D0002088F80B0071
:10212000E06101260CE033464A4669464046FFF727
:1021300092FE2046FFF7F8FE054605B102E0761C48
:10214000642EF0D300BF642E01D10720DEE7042DFA
:1021500001D02846DAE79DF80B0088F80B00C4F898
:102160001C909DF80B0010F0020F0CD0002600E030
:10217000761C39F816000028FAD106F119000D2155
:10218000B0FBF1F700E0012739462046FFF762FD7A
:10219000054645BB781E070025D0E088C11B2046B8
:1021A000FFF783FC0546F5B9A069FFF7ADFE82464F
:1021B00000BF21692068FFF732FA054605B111E03A
:1021C0005346FAB26169E069FFF708FE0120216811
:1021D000087100212046FFF7B7FC054615B9781EA7
:1021E0000700E6D100BFC5B921692068FFF717FADB
:1021F000054695B9202200216069FFF7C0F90B223E
:10220000D4E90501FFF7AEF9A069C07A00F0180023
:1022100061690873012021680871284676E770B566
:102220000446E688208CA0F57F42FF3A01D1304673
:1022300000E0208C01462046FFF737FC05460DBB29
:1022400000BF21692068FFF7EAF9054605B115E0EE
:10225000202200216069FFF792F9E520616908708A
:10226000012021680871E088B04200D306E0002117
:102270002046FFF769FC0546002DE2D000BF042D83
:1022800000D10225284670BD2DE9F05F80460D463D
:1022900005F10907D8F81000F0B3D8F8144000266B
:1022A00026E03046761C14F80090B9F1200F00D1DA
:1022B0001EE0B9F1050F01D14FF0E509092E02D159
:1022C0002E2007F8010BB9F1410F0EDBB9F15A0FBF
:1022D0000BDC207B092E01D3102100E008210842ED
:1022E00003D009F1200000F0FF0907F8019B00BFAF
:1022F0000B2ED6D3E07A2872E07F0106A07F41EA58
:102300000041607F41EA0020217F08432860217E50
:10231000607E41EA002000E005E0A880A17DE07D2C
:1023200041EA0020E88000203870A86960B30026E8
:10233000AF69D8F8100028B3E86918B3B8F82000DE
:10234000A0F57F41FF391DD0D8F81CB014E0002162
:10235000504601F0D7FF8246BAF1000F01D10026A6
:102360000FE000BFE869401EB04201D8002608E037
:102370003046761C07F800A03BF8021B5FEA010A12
:10238000E5D100BF0020B855BDE8F09F01460B68BD
:102390005A1C0A601878612804DB7A2802DCA0F154
:1023A000200290B2802803DBA0F18002F84B985CF9
:1023B00070472DE9FF4782B0044690461D4607E06E
:1023C00003A8FFF7E3FF18B9002006B0BDE8F087C7
:1023D0005FEA0800A8F10108F2D1207810B90DB128
:1023E0000120F2E700BF01940398009000BF01981C
:1023F00000783F2803D0019800782A2822D10020B5
:102400008246074600BF019810F8011B01903F2942
:1024100001D17F1C01E04FF0010A019800783F28AC
:10242000F1D0019800782A28EDD053463A46DDE9EC
:102430000010FFF7BEFF08B10120C6E7009890F832
:1024400000900EE001A8FFF7A1FF06466846FFF7DF
:102450009DFF81464E4500D003E0002EC7D10120EC
:10246000B3E700BF03A8FFF791FF15B1B9F1000F63
:10247000B9D10020A9E72DE9F34F83B08346049832
:102480000068019002E00198401C019001980078DA
:102490002F28F8D0019800785C28F4D0DBF81C7065
:1024A0000025A84600BF404608F1010801990C5CD0
:1024B000202C03DB2F2C01D05C2C00D11CE0FF2D45
:1024C00003D3062005B0BDE8F08FE4B20121204619
:1024D00001F018FF04460CB90620F3E7802C06DA59
:1024E0002146ACA0FFF768F808B10620EAE72846C5
:1024F0006D1C27F81040D6E700BF019800EB0801DB
:1025000004980160202C01DA042000E00020C6B20B
:10251000012D04D1681E37F810002E280BD0022D93
:1025200024D1681E37F810002E281FD1A81E37F8B6
:1025300010002E281AD1002027F8150082460AE044
:10254000AA4501D22E2000E02020DBF8181001F867
:102550000A000AF1010ABAF10B0FF1D346F020008C
:10256000DBF8181001F80A000020ABE708E0681E4D
:1025700037F81040202C02D02E2C00D002E06D1E27
:10258000002DF4D100BF0DB906209BE7002027F8ED
:1025900015000B222021DBF81800FEF7F0FF4FF0AA
:1025A000000801E008F1010837F818002028F9D0E8
:1025B00037F818002E28F5D0B8F1000F01D046F0FA
:1025C000030600E06D1E25B1681E37F810002E28A6
:1025D000F8D14FF0000AD1460820029000BF4046D3
:1025E00008F1010837F8104004B954E0202C03D05A
:1025F0002E2C04D1A84502D046F00306EFE702983E
:10260000824501D2A84516D102980B2802D146F086
:10261000030640E0A84501D046F00306A84500D9CE
:1026200039E0A8464FF0080A0B2002904FEA896073
:102630004FEA1069D3E7802C0BDB0021204601F024
:1026400061FE04461CB1A4F1800051490C5C46F0C7
:10265000020600BF24B1214651A0FEF7ADFF18B11C
:102660005F2446F003060FE0412C04DB5A2C02DC09
:1026700049F0020908E0612C06DB7A2C04DC49F001
:102680000109A4F1200084B250460AF1010ADBF8E6
:1026900018301C54A3E700BFDBF818000078E528C9
:1026A00003D10520DBF8181008700298082803D120
:1026B0004FEA89604FEA106909F00C000C2803D03A
:1026C00009F00300032801D146F0020616F0020FBC
:1026D0000BD109F00300012801D146F0100609F0E2
:1026E0000C00042801D146F00806DBF81800C67279
:1026F0000020E7E62DE9F3410446019800782F28F1
:1027000003D0019800785C2805D10198401C019005
:102710000020A06002E020684069A0600198007875
:10272000202807D200212046FFF7BFF905460020E8
:10273000606140E000BF01A92046FFF79CFE05460E
:1027400005B137E02046FFF7EFFB0546A069C67AE2
:1027500095B1042D0FD116F0200F08D00020A060F5
:10276000606116F0040F00D1E5E7002503E016F0E4
:10277000040F00D105251DE016F0040F00D019E06C
:102780006769F87A10F0100F0ED1052512E00000ED
:1027900060890008222A3A3C3E3F7C7F000000000E
:1027A0002B2C3B3D5B5D000039462068FFF780FA2B
:1027B000A060C0E700BF2846BDE8FC8170B50246B6
:1027C0004FF0FF301568EDB1116800E0491C0D783D
:1027D000202D02D30D783A2DF8D10D783A2D0FD156
:1027E000146814F8015BA5F130030A2B07D28C4260
:1027F00005D1022B03D218464D1C2946156070BD29
:10280000FF4D287800BFFAE770B504460D4600205A
:102810002071401E206329462046FEF700FF08B1C4
:10282000032070BD94F8321294F8330241EA00207C
:10283000A0F52A41553901D00220F2E794F86D0045
:10284000010694F86C0041EA004194F86B0041EAFB
:10285000002094F86A10084320F07F40E94988423C
:1028600001D10020DDE794F88900010694F8880082
:1028700041EA004194F8870041EA002094F886106C
:10288000084320F07F40DF49884201D10020C8E79B
:102890000120C6E72DE9F74F8AB000210A980160B0
:1028A0000B98FFF78BFF09900998002803DA0B209B
:1028B0000DB0BDE8F08FD449099851F820400CB90B
:1028C0000C20F5E70A980460207878B16078FEF76C
:1028D000E4FD82461AF0010F08D10C9820B11AF0DD
:1028E000040F01D00A20E3E70020E1E70020207078
:1028F000099860706078FEF7BFFD82461AF0010FFC
:1029000001D00320D4E70C9820B11AF0040F01D0B5
:102910000A20CDE7002739462046FFF775FF054618
:10292000012D01D09DBB32E000261AE004F5F970BC
:1029300000EB061999F8040070B199F80B00010634
:1029400099F80A0041EA004199F8090041EA00209B
:1029500099F80810084300E0002002A941F8260079
:10296000761C042EE2D3002606B1761E00BF02A814
:1029700050F8267027B139462046FFF745FF00E0A2
:102980000220C5B21DB1701C06460428EFD3032DEA
:1029900001D101208CE70DB10D2089E73F20015DB9
:1029A00094F8400041EA0020B0F5007F01D00D20EE
:1029B0007EE74A20015D94F84B0041EA0028B8F117
:1029C000000F0ED194F85B00010694F85A0041EA1A
:1029D000004194F8590041EA002094F8581040EA68
:1029E0000108C4F81C804420005DE070E0780128F4
:1029F00004D0E078022801D00D2059E7E07808FBE8
:102A000000F84120005DA070A07818B1A078411EA8
:102A1000084201D00D204BE74520015D94F84600A7
:102A200041EA00202081208910F00F0F01D00D20F5
:102A30003EE74720015D94F8480041EA002BBBF1D6
:102A4000000F0ED194F85700010694F8560041EAA1
:102A5000004194F8550041EA002094F8541040EAEF
:102A6000010B4220015D94F8430041EA00200190EF
:102A7000019808B90D201BE701984044218900EB1B
:102A8000111008900898834501D20D2010E708988E
:102A9000ABEB0000A178B0FBF1F00790079808B904
:102AA0000D2005E7012540F6F6710798884200D30E
:102AB00002254FF6F6710798884200D30325079840
:102AC000801CA061276201983844606208983844ED
:102AD000E062032D16D1208908B10D20E8E694F8B4
:102AE0006300010694F8620041EA004194F8610035
:102AF00041EA002094F860100843A062A0698000B9
:102B0000069014E0208908B90D20D1E6606A40449F
:102B1000A062022D02D1A069400007E0A06900F088
:102B20000100A16901EB410100EB51000690E16950
:102B3000069800F2FF10B1EB502F01D20D20B7E63E
:102B40004FF0FF302061E06080206071032D65D17F
:102B500094F8641094F8650041EA002001285DD1E2
:102B6000791C2046FEF75BFDE8BB0020607194F8FD
:102B7000321294F8330241EA0020A0F52A41553977
:102B80004CD194F83700010694F8360041EA004130
:102B900094F8350041EA002094F8341008431B49AA
:102BA00088423BD194F81B02010694F81A0241EACC
:102BB000004194F8190241EA002094F818120843E1
:102BC000134988422AD194F81F02010694F81E0284
:102BD00041EA004194F81D0241EA002094F81C12D9
:102BE0000843206100E019E094F82302010694F8FC
:102BF000220241EA004194F8210241EA002009E062
:102C0000D200002046415400C800002052526141C9
:102C10007272416194F820120843E0602570FA480E
:102C20000088401C80B2F8490880E0800020606184
:102C300000BF3DE670B505462C464CB1206838B162
:102C40002068007820B12068C088A188884201D01F
:102C5000092070BD21684878FEF71FFC10F0010FB5
:102C600001D00320F5E70020F3E7F7B582B0164660
:102C70000398019001A8FFF7A1FD0546002D02DA97
:102C80000B2005B0F0BDE14850F825400CB1002004
:102C90002070029810B1002002990870DB49029858
:102CA00041F82500029808B1012E01D00020E8E784
:102CB000002203A902A8FFF7EDFD07463846E0E72A
:102CC0002DE9F7438EB0054616461DB9092011B00F
:102CD000BDE8F0830020286006F01F0626F0010200
:102CE0000FA904A8FFF7D6FD0746F7BB01A80A9075
:102CF000C7480B9004A80F99FFF7FCFC0746099CF6
:102D00000FB904B9062716F01C0F51D04FB1042F8C
:102D100003D104A8FFF7E3F9074646F00806099C2B
:102D200009E0E07A10F0110F01D0072703E016F058
:102D3000040F00D00827D7BB16F0080F47D0FEF7C6
:102D40000DFC804684F80E804FEA1820E0734FEAAD
:102D5000184121744FEA186060740020E0722077F7
:102D600000216177A177E17700E056E021460498E1
:102D7000FEF79EFF814600212046FEF7A9FF0120B5
:102D800004990871B9F1000F21D00498D0F830806F
:102D900049460498FEF7E8FD074647B9A9F1010046
:102DA0000499C86041460498FEF739FC07460EE0D6
:102DB0006FB9E07A10F0100F01D0042707E016F089
:102DC000020F04D0E07A10F0010F00D0072747B9B6
:102DD00016F0080F01D046F020060498006BE86159
:102DE0002C62D7B9AE710020E87121460498FEF735
:102DF0005FFF2861E07F0106A07F41EA0041607F1C
:102E000041EA0020217F0843E8600020A860A86113
:102E1000049828602868C088A880384657E72DE9BC
:102E2000FF4F83B0044615469A46DDF810B00020E7
:102E3000CAF800002046FFF7FDFE0290029818B184
:102E4000029807B0BDE8F08FE07908B1E079F8E7C3
:102E5000A07910F0010F01D10720F2E7D4E90210A8
:102E6000401A00900098854200D9009DA1E0A0681A
:102E7000C005C00D7ED120688078401EA16800EAA0
:102E8000512000F0FF09B9F1000F17D1A06810B967
:102E90002069019004E061692068FEF74BFC019015
:102EA0000198022802D20220E071CAE70198401C72
:102EB00002D10120E071C4E7019860616169206876
:102EC000FEF72BFC064616B90220E071B9E74E4426
:102ED0004FEA5528B8F1000F29D009EB0800216806
:102EE0008978884203D920688078A0EB0908216896
:102EF0004878434632465946FEF7E0FA10B10120C1
:102F0000E0719EE7A07910F0400F0DD0A069801B02
:102F1000404509D2A169891B0BEB41204FF4007297
:102F200004F12401FEF71EFB4FEA482737E0A069B1
:102F3000B04220D0A07910F0400F0FD0216848781F
:102F4000012304F12401A269FEF7D3FA10B1012094
:102F5000E07176E7A07920F04000A0712168487800
:102F60000123324604F12401FEF7A8FA18B101202A
:102F7000E07166E700E0A661A068C0F30800C0F554
:102F80000077AF4200D92F46A068C0F3080204F1D1
:102F9000240011183A465846FEF7E4FA00BFBB4435
:102FA000A0683844A060DAF800003844CAF800008D
:102FB000ED1B002D7FF45BAF002042E72DE9FF4FB2
:102FC00083B0044615469B46049801900020CBF838
:102FD00000002046FFF72EFE0290029818B10298DA
:102FE00007B0BDE8F08FE07908B1E079F8E7A079A3
:102FF00010F0020F01D10720F2E7A0682844A16871
:10300000884200D20025BAE0D0000020C80000208D
:10301000A4010020A068C005C00D77D12068807889
:10302000401EA16800EA512000F0FF0ABAF1000F2B
:103030001ED1A06838B9276957B900212068FEF76A
:10304000C9FC074604E061692068FEF7C3FC074637
:1030500007B997E0012F02D10220E071C0E7781C88
:1030600002D10120E071BBE76761206900B92761E7
:10307000A07910F0400F0FD021684878012304F1A7
:103080002401A269FEF735FA10B10120E071A7E72B
:10309000A07920F04000A07161692068FEF73DFB37
:1030A000064616B90220E0719AE756444FEA5529C0
:1030B000B9F1000F2BD00AEB09002168897888420A
:1030C00003D920688078A0EB0A09216848784B462C
:1030D00032460199FEF70DFA10B10120E0717FE749
:1030E000A069801B48450ED2A069801B019A02EBA3
:1030F00040214FF4007204F12400FEF733FAA07966
:1031000020F04000A0714FEA49282BE013E0A069AD
:10311000B0420FD0D4E9020188420BD2216848782E
:103120000123324604F12401FEF7C8F910B1012051
:10313000E07155E7A661A068C0F30800C0F500780B
:10314000A84500D9A846A168C1F3080204F12401EA
:10315000501842460199FEF705FAA07940F0400068
:10316000A07100BF019840440190A0684044A06055
:10317000DBF800004044CBF80000A5EB0805002D6B
:103180007FF448AF00BFD4E90201884201D9A068AA
:10319000E060A07940F02000A071002020E72DE938
:1031A000F04104462046FFF745FD0746F7BBA079EE
:1031B00010F0200F48D0A07910F0400F0FD02168F8
:1031C0004878012304F12401A269FEF792F910B1B5
:1031D0000120BDE8F081A07920F04000A071E169F4
:1031E0002068FEF71CFA074607BB256AE87A40F01C
:1031F0002000E872E0682877E068000A6877E068F5
:10320000010CA977E068000EE87728462169FEF7EF
:103210005FFDFEF7A3F90646AE75300AE875310C7E
:103220002976300E68760020A87400E00CE00021BA
:10323000E974A07920F02000A071012021680871B4
:103240002068FEF706FA07463846C2E770B505461D
:103250002846FFF7A4FF044634B92846FFF7EAFCE6
:1032600004460CB900202860204670BD31B5684680
:10327000FFF7A4FA0446002C01DA0B2038BDFD4903
:103280000C700020FAE711B58DB000220DA903A83B
:10329000FFF700FB0446FCB9CDF824D0F6480A90AD
:1032A00003A80D99FFF726FA044694B9089818B9AF
:1032B0000399059848610CE00898C07A10F0100F47
:1032C00006D008990398FEF7F3FC0399486100E0E3
:1032D0000524042C00D1052420460EB010BD2DE994
:1032E000F34395B08846002015990870002215A96F
:1032F0000BA8FFF7CFFA05468DBBCDF844D0DE48CA
:10330000129046460B9840690D905DE001210BA894
:10331000FEF7CBFB054605B15BE000210BA8FEF7ED
:103320007CFE054605B154E010990B98FEF7C0FCF1
:103330000D9000210BA8FEF7B8FB054605B148E04B
:1033400000BF00210BA8FEF768FE054605B10EE0A0
:1033500010990B98FEF7ACFC484501D107E054E00A
:1033600000210BA8FEF7F0FB0546002DE9D000BFB9
:10337000042D00D1022505B12BE0159809900A967D
:1033800003A90BA8FEF780FF0DF11504159800782E
:1033900000B1159C002700E07F1CE05D0028FBD1F8
:1033A000F81C864201D2112513E006E0781E07467C
:1033B000215C701E0646159A1154002FF6D12F215C
:1033C000701E0646159A1154DDF83490B9F1000FBD
:1033D0009CD100BF159CB5B9A6480078303004F8E0
:1033E000010B3A2004F8010B464503D12F2004F8C5
:1033F000010B08E000BF3046761C1599085C04F804
:10340000010B4645F7D300202070284617B0BDE8D1
:10341000F0832DE9F04704460E462046FFF70AFCEC
:103420008246BAF1000F02D05046BDE8F087E0793D
:1034300008B1E079F9E7E068B04204D2A07910F071
:10344000020F00D1E668D4F808904FF00008C4F8E5
:103450000880C6B3206880784702B9F1000F11D008
:10346000701EB0FBF7F1A9F10100B0FBF7F081424B
:1034700008D3A9F10100791E8843A060A068361A1C
:10348000656912E025697DB900212068FEF7A2FA7E
:103490000546012D02D10220E071C6E7681C02D169
:1034A0000120E071C1E72561656165B124E0A07983
:1034B00010F0020F08D029462068FEF78BFA054667
:1034C0003DB93E461AE02DE029462068FEF732F964
:1034D0000546681C02D10120E071A6E7012D03D941
:1034E00020688069A84202D80220E0719DE76561EA
:1034F000A0683844A060F61BBE42D8D800BFA068C0
:103500003044A060F005C00D0CD029462068FEF7BD
:1035100004F98046B8F1000F02D10220E07184E77F
:1035200008EB5628A068C005C00D24D0A06940450E
:1035300021D0A07910F0400F0FD0216848780123E6
:1035400004F12401A269FDF7D4FF10B10120E0715C
:103550006BE7A07920F04000A07121684878012332
:10356000424604F12401FDF7A9FF10B10120E071EA
:103570005BE7C4F81880D4E90201884205D9A06845
:10358000E060A07940F02000A07150464DE733B5CF
:1035900085B0044614B9092007B030BD002206A941
:1035A00004A8FFF777F905462DBB0498206001A811
:1035B000A0613148E06120460699FFF79BF8054677
:1035C000B5B9606958B16069C07A10F0100F05D0C4
:1035D00061690498FEF76CFBA06000E005253DB929
:1035E0000498C088A08000212046FEF75EFA0546B8
:1035F000042D00D105250DB1002020602846CBE721
:1036000070B504462046FFF715FB05460DB90020AE
:103610002060284670BDFEB504460E462046FFF7E2
:1036200009FB05461DBB2EB900212046FEF73DFAD9
:1036300005461CE0C4F818D00F48E0610021204680
:10364000FEF7EBFC0546042D02D100202061002589
:103650006DB931462046FEF717FE00212046FEF7E1
:1036600073FA0546042D02D100202061002528466A
:10367000FEBD0000D2000020A401002070B5054668
:103680000C4600BF21462846FFF7C5FF064616B97F
:103690000CB1607A00B913E0A06938B1A1690023C8
:1036A0001A46686AFEF785FE00B109E000231A4653
:1036B00004F10901686AFEF77CFE0028E2D000BF31
:1036C00000BF304670BD2DE9F041044688461546DE
:1036D0001E46666229462046FFF759FF074627B96E
:1036E00041462046FFF7CAFF07463846BDE8F0814D
:1036F00033B58DB00D4600220DA903A8FFF7CAF817
:10370000044694B9CDF824D0FA480A9003A80D993C
:10371000FEF7F0FF044644B9089828B12DB12946B8
:1037200003A8FEF7B1FD00E0062420460FB030BD2F
:103730002DE9F74F82B08A46002202A90498FFF7CC
:10374000A9F80190049804680198F0BBA069801E54
:103750002169814203D82069CAF8000066E094F824
:1037600000B00026BBF1010F1CD1022700BF394673
:103770002046FDF7DFFF804618F1010002D101204D
:1037800001900EE0B8F1010F02D10220019008E093
:10379000B8F1000F00D1761C781C0746A169884259
:1037A000E5D33CE0A769606A00904FF0000900256E
:1037B00000BFB9F1000F10D10098421C014620460D
:1037C0000092FDF72CFF019000E02FE0019800B17E
:1037D00024E004F134054FF40079BBF1020F09D164
:1037E0002878697850EA012000D1761CAD1CA9F137
:1037F000020910E0E8780006A97840EA01406978FB
:1038000040EA01202978084330F0704000D1761C4E
:103810002D1DA9F10409781E0700CAD100BF266139
:10382000607940F001006071CAF80060019805B04D
:10383000BDE8F08F70B504462046FFF7FBF905465A
:1038400045B9E07908B1E57904E0A07910F0020FFC
:1038500000D10725EDBBD4E90210884243D9A06806
:10386000E060A07940F02000A071A06838B921691B
:103870002068FEF779F80546002020611DE06169A7
:103880002068FDF757FF06460025701C00D1012572
:10389000012E00D1022585B920688069B0420CD97B
:1038A0006FF0704261692068FDF7BDFF054625B9DC
:1038B00031462068FEF758F80546A5B9A07910F002
:1038C000400F10D021684878012304F12401A26937
:1038D00000E00AE0FDF70DFE08B1012503E0A07944
:1038E00020F04000A07105B1E571284670BD71B5AA
:1038F00097B00026012217A90DA8FEF7CBFF0446BA
:10390000F4BBCDF84CD07B4814900DA81799FEF766
:10391000F1FE04462CB91398C07A10F0200F00D0A5
:1039200006246CBB129D0DB9062404E0E87A10F061
:10393000010F00D007243CBB29460D98FEF7B8F9CB
:1039400006460EB3E87A10F0100F1DD00D984069AE
:10395000B04201D1072417E028220DA903A8FDF7E2
:1039600001FE0596022103A8FEF79FF804465CB904
:10397000002103A8FEF751FB044604B9072400E028
:1039800013E0042C00D100247CB90DA8FEF747FCFD
:1039900004462CB926B131460D98FDF7E5FF0446E3
:1039A0001CB90D98FDF755FE0446204618B070BDB1
:1039B0002DE9F1478DB0FDF7D1FD064601220DA995
:1039C00003A8FEF767FF0546F5BBCDF824D04948AC
:1039D0000A9003A80D99FEF78DFE054605B9082546
:1039E000042D05D10998C07A10F0200F00D00625CB
:1039F000042D29D100210398FDF7ECFF074600258F
:103A000007B90725012F00D10225781C00D1012517
:103A10001DB90398FDF7DAFD0546F5BB3946039855
:103A2000FDF77BFE8146039800F134044FF40072E9
:103A300000212046FDF7A3FD0B2220212046FDF7A3
:103A40009EFD2E20207000E06BE01020E072A67535
:103A5000300AE075310C2176300E6076394620460A
:103A6000FEF736F92022214604F12000FDF77AFD09
:103A70002E2084F82100DDF814A003980078032894
:103A800005D10398806A504501D14FF0000A514694
:103A900004F12000FEF71CF900E01FE0039890F805
:103AA000028017E00398C0F8309009F10109012065
:103AB000039908710398FDF789FD054605B10CE0EF
:103AC0004FF4007200212046FDF759FDA8F10100D6
:103AD00000F0FF08B8F1000FE4D100BF1DB903A842
:103AE000FEF7FDFA05463DB139460398FDF73CFF68
:103AF00017E00000A4010020089C1020E072A675C9
:103B0000300AE075310C2176300E60763946204659
:103B1000FEF7DEF80120039908710398FDF799FD7F
:103B2000054628460EB0BDE8F087F7B58EB00F46C3
:103B3000144601220EA904A8FEF7ACFE05462DBBD3
:103B400001A80A90FF480B9004A80E99FEF7D2FD39
:103B500005462DB90A98C07A10F0200F00D006252E
:103B6000A5B9099E0EB9062510E004F0270407EA5E
:103B70000400F17AE243D2B211400843F07201200E
:103B8000049908710498FDF764FD0546284611B0B4
:103B9000F0BDF3B59DB001221DA913A8FEF77AFE72
:103BA0000446F4BB13980990CDF864D0E5481A9008
:103BB00013A81D99FEF79EFD04462CB91998C07AEA
:103BC00010F0200F00D006245CBB189808B904241C
:103BD00064E0189800F10B01152203A8FDF7C2FC60
:103BE000282213A909A8FDF7BDFC1EA8FEF7E6FDD3
:103BF000002805DB09A81E99FEF77CFD044600E0BD
:103C00000B2404B90824042C48D109A8FEF767FA4C
:103C1000044634B90E9D13220DF10E0105F10D007D
:103C200000E03BE0FDF79EFC9DF80C0040F020001A
:103C3000E872012013990871E87A10F0100F23D070
:103C40000B99159888421FD029461398FEF730F833
:103C5000074639461398FDF760FD06460EB9022463
:103C600012E031461398FDF7DAFC0446139800F190
:103C700054054CB968782E2806D128460B99FEF7D2
:103C800027F801201399087144B913A8FEF7C7FA61
:103C900004461CB91398FDF7DCFC044620461FB00F
:103CA000F0BD73B58EB00D4601220EA904A8FEF733
:103CB000F1FD06462EBB01A80A90A2480B9004A86D
:103CC0000E99FEF717FD06462EB90A98C07A10F035
:103CD000200F00D00626A6B9099C0CB9062610E0D4
:103CE000E888A075E8880012E075A8882076A88882
:103CF000001260760120049908710498FDF7A9FC70
:103D00000646304610B070BD2DE9F7418BB00D4628
:103D1000904600220BA901A8FEF7BCFD044624BB77
:103D20001DB300200390002101A8FDF7BEFE04464C
:103D3000DCB9012101A8FEF770F9044684B90B2211
:103D400028460699FDF70EFC0B2700BF0020E8551A
:103D500007B904E0781E0746285C2028F6D000BF8B
:103D6000042C02D100202870002444BBB8F1000FBD
:103D700025D0019A1046116AFDF751FC0446F4B9AA
:103D800001980078032801D1432000E0272006464F
:103D9000019834303044C078010601983430304402
:103DA000807841EA0041019834303044407841EA5B
:103DB000002001993431895D0843C8F8000020468D
:103DC0000EB0BDE8F0812DE9F14F8EB001220EA9B1
:103DD00004A8FEF75FFD07461FB138460FB0BDE8E7
:103DE000F08F00208DF80400002500E06D1C0E9877
:103DF000405D0028FAD100E06D1E25B1681E0E99C5
:103E0000085C2028F8D09DB34FF00008C14600BFE1
:103E1000484609F101090E990E5C0121304600F077
:103E200071FA834600F091FA8246002100F06AFAA6
:103E300006465EB1314644A0FDF7BEFB30B9FF2E09
:103E400001DD0A2000E00B20404501D80620C5E72F
:103E5000FF2E05DD3012414608F1010801AA505439
:103E6000404608F1010801A90E54A945D0D306E047
:103E70000EE02022404608F1010801A90A54B8F1D9
:103E80000B0FF6D39DF80400E52801D10620A5E725
:103E900000200690002104A8FDF707FE074637BB67
:103EA000012104A8FEF7B9F807460FBB9DF80400EE
:103EB00098B10B2201A90998FDF754FBFDF74EFBC1
:103EC000044609998C75200A0999C875210C09982E
:103ED0000176200E0999487602E0E52009990870DC
:103EE0000120049908710498FDF7B3FB074639E0F7
:103EF000042F37D100279DF8040068B3012104A8DE
:103F0000FDF7A8FE07463FBB202200210998FDF7D8
:103F100036FB0B2201A90998FDF724FB082009991B
:103F2000C872FDF71BFB044609998C75200A099994
:103F3000C875210C09980176200E09994876012050
:103F400004990AE0A4010020222A2B2C2E3A3B3CA3
:103F50003D3E3F5B5D7C7F0004E008710498FDF707
:103F600078FB0746384639E72DE9FC47074688467F
:103F7000914600253E4615E06B46012201A94846C0
:103F8000FEF74DFF0098012800D00FE09DF8044097
:103F90000D2C00D106E006F8014B6D1C0A2C00D157
:103FA00004E000BFA8F10100A842E5DC00BF00204A
:103FB000307015B13846BDE8FC870020FBE7F8B546
:103FC00004460E460A2E03D10D212046FFF7F7FFC7
:103FD0006568002D00DAF8BD28466D1C04F10C015F
:103FE0000E543D2D0CDB6B462A462068FEF7E6FF9B
:103FF0000098A84201D1002001E04FF0FF300546B3
:104000006560A068401CA06000BFE4E730B595B0D3
:1040100004460D460295002003900490214602A814
:10402000FFF7CDFF039800280DDB01AB05A9DDE903
:104030000202FEF7C3FF30B901990398884202D10A
:10404000049815B030BD4FF0FF30FAE730B595B0A9
:1040500004460D46029500200390049004E014F8F5
:10406000011B02A8FFF7ABFF20780028F7D10398C7
:1040700000280DDB01AB05A9DDE90202FEF79EFF7A
:1040800030B901990398884202D1049815B030BD27
:104090004FF0FF30FAE70FB42DE9F04F9BB02498B2
:1040A000019000200290039026A81A9000BF259846
:1040B00010F8014B259004B90CE1252C04D02146C1
:1040C00001A8FFF77CFFF2E700200646814625980D
:1040D00010F8014B2590302C05D10126259810F8B9
:1040E000014B259006E02D2C04D10226259810F8CE
:1040F000014B259009E009EB890004EB4000A0F199
:104100003009259810F8014B2590302C01DB392C13
:10411000F1DD6C2C01D04C2C05D146F0040625981D
:1041200010F8014B259004B9D4E02546612D04DB3D
:104130007A2D02DCA5F12000C5B24F2D48D006DC57
:10414000422D42D0432D38D0442D4BD143E0532D46
:1041500004D0552D40D0582D44D140E01A9850F845
:1041600004BB1A904FF0000801E008F101081BF8A9
:1041700008000028F9D116F0020F09D103E0202130
:1041800001A8FFF71CFF404608F101084845F6D397
:1041900004E01BF8011B01A8FFF711FF9BF80000CA
:1041A0000028F6D103E0202101A8FFF708FF4046D0
:1041B00008F101084845F6D379E71A9804C8D1B246
:1041C0001A9001A8FFF7FBFE71E7022019900EE09C
:1041D000082019900BE000BF0A20199007E010207A
:1041E000199004E0214601A8FFF7E9FE5FE700BF50
:1041F00016F0040F05D01A9800681A99091D1A9133
:104200000CE0442D05D11A9800681A99091D1A91DD
:1042100004E01A9800681A99091D1A918246442DE3
:1042200006D11AF0004F03D0CAF1000A46F0080682
:10423000002700BF1998BAFBF0F100FB11A0C5B22E
:104240001998BAFBF0FA092D06DD782C01D1272048
:1042500000E007202844C5B205F13000C2B238465C
:104260007F1C14A90A54BAF1000F01D0102FE1D31A
:1042700016F0080F04D02D2239467F1C14A8425492
:10428000B84616F0010F01D0302000E02020C5B262
:1042900003E0294601A8FFF792FE16F0020F04D1B1
:1042A000404608F101084845F3D300BF781E074691
:1042B00014AA115C01A8FFF782FE002FF6D103E0DB
:1042C000294601A8FFF77BFE404608F10108484552
:1042D000F6D3ECE600BF0298002810DB18AB04A967
:1042E000DDE90102FEF76AFE48B918990298884292
:1042F00005D103981BB0BDE8F00F5DF814FB4FF03B
:10430000FF30F7E710B50246802A01DA10461BE0BD
:1043100051B1FF2A01DD002304E0A2F18003174C14
:1043200034F8133098B20FE0002007E0134B33F855
:104330001030934200D103E0431C98B28028F5DB93
:1043400000BF00F18003D8B210BD0246002100E09A
:10435000491C0B4830F8110020B1094830F8110011
:104360009042F5D1064830F8110018B1054830F8F0
:10437000110000E0104680B270470000EE8900088E
:10438000EE8A0008CE8C0008012070472DE9F0412C
:1043900006460027F848456B01E0F748456B15F0E5
:1043A000450FFAD015F0040F06D00327042003F0C0
:1043B0002DFE3846BDE8F08115F0010F05D001272C
:1043C000012003F023FE3846F4E703F0C7FDB042B6
:1043D00002D010273846EDE740F2FF5003F016FEFA
:1043E000002003F0BFFD0446E448044201D13846F2
:1043F000E0E714F0004F01D01C20DBE714F0804F01
:1044000001D00920D6E714F0005F01D00A20D1E7DF
:1044100014F0805F01D00B20CCE714F0006F01D0C6
:104420000C20C7E714F0806F01D00D20C2E714F014
:10443000807F01D00E20BDE714F4000F01D00F20C3
:10444000B8E714F4800F01D01020B3E714F4001F74
:1044500001D01120AEE714F4801F01D01220A9E78B
:1044600014F4002F01D01320A4E714F4802F01D0FE
:1044700014209FE714F4003F01D015209AE714F4AC
:10448000803F01D0162095E714F4004F01D017208B
:1044900090E714F4804F01D018208BE714F4005FEC
:1044A00001D0192086E714F0080F01D01A2081E707
:1044B00038467FE72DE9FC4107460D4600260024DB
:1044C0000020009001900820AD490860102048604D
:1044D000402088600020C8604FF480600861084672
:1044E00003F022FD1020FFF751FF044614B12046CF
:1044F000BDE8FC81A34800680004A149086037209A
:104500004860402088600020C8604FF480600861E7
:10451000084603F009FD3720FFF738FF04460CB1C9
:104520002046E5E74FF0FF309749086008204860D3
:10453000302088600220C8600020086101204861A6
:10454000084603F014FD00208D49086033204860C0
:10455000402088600020C8604FF4806008610846F1
:1045600003F0E2FC3320FFF711FF04460CB12046B4
:10457000BEE709E04FF4001003F03EFD20B103F068
:1045800018FD4DF82600761C7B48406B40F22A61EE
:104590000842EFD0082003F02FFD28B1082003F0D7
:1045A00035FD04242046A3E7022003F025FD28B1B1
:1045B000022003F02BFD0224204699E7202003F07F
:1045C0001BFD28B1202003F021FD062420468FE7A3
:1045D0004FF4007003F010FD30B14FF4007003F0A1
:1045E00015FD0724204683E740F2FF5003F00EFD3F
:1045F00000980006009901F47F4140EA01200099EB
:1046000001F47F0140EA1120009940EA11606860DE
:1046100001980006019901F47F4140EA01200199C7
:1046200001F47F0140EA1120019940EA11602860FD
:1046300020465DE77CB505460024002000900190EF
:1046400003F090FC10F0007F02D00E2420467CBDC9
:1046500069464C48006880B2FFF72CFF04460CB155
:104660002046F4E7012D35D1019810F4802F2ED08B
:1046700044480068000442490860372048604020F0
:1046800088600020C860A8020861084603F04CFC5E
:104690003720FFF77BFE04460CB12046D7E7022007
:1046A0003749086006204860402088600020C860C4
:1046B0004FF480600861084603F036FC0620FFF7DF
:1046C00065FE04460CB12046C1E72046BFE725241D
:1046D0002046BCE7019810F4803F2FD0294800689D
:1046E0000004274908603720486040208860002087
:1046F000C8604FF480600861084603F015FC37205D
:10470000FFF744FE04460CB12046A0E700201C49F8
:10471000086006204860402088600020C8604FF490
:1047200080600861084603F0FFFB0620FFF72EFEBD
:1047300004460CB120468AE7204688E72524204617
:1047400085E770B50446002510480068032802D1AB
:104750002725284670BD0D48006838B10B48006811
:10476000012803D00948006802283AD1B4F5805FD7
:104770000ED127252846EDE70080014008E0FFFD27
:1047800048040020D80000205C040020D400002051
:10479000B4F5006F14D10120FFF74CFF054605BBAF
:1047A0007620FB490870002048608860C8604FF49C
:1047B0000060086100204861084603F075FB10E0C6
:1047C0000020FFF737FF05465DB97620F0490870F5
:1047D000002048608860C86008614861084603F0AE
:1047E00063FB2846B6E770B504460D464FF0000659
:1047F000E84804604FF00700E64948604FF0400089
:1048000088604FF00000C8604FF48060086108467F
:1048100003F08AFB0720FFF7B9FD0646304670BD5E
:10482000F0B5014600200022DB4B1B6881F85630B2
:10483000DA4B1B68A1F85430D94B1B681A0E930948
:104840000B70C2F383034B7002F003038B70D44BE5
:104850001B68C3F30742CA70D14B1B68C3F307221E
:104860000A71CF4B1B68DAB24A71CD4B5B681A0EE6
:104870001301CB80CA4B5B68C3F30742CB8843EA82
:104880001213CB8002F00F030B72C54B5B68C3F3AE
:104890000722D3094B72C2F380138B72C2F3401309
:1048A000CB72C2F300130B7300234B73BA4B1B681C
:1048B0001BB1B94B1B68012B50D193071B0D0B612A
:1048C000B74B5B68DAB20B6943EA82030B61B44B06
:1048D0009B681A0E0B6943EA92130B61C2F3C20381
:1048E0000B7502F007034B75AD4B9B68C3F3074292
:1048F00053098B75C2F38203CB7593075B0F0B765D
:10490000A74B9B68C3F307220B7E43EAD2130B76B7
:104910000B695B1C0024C1E912340B7ED1E91264DF
:104920009B1C012505FA03F3DF17A6FB035C04FBC0
:1049300003C306FB0733C1E912530C7A0123A340DA
:104940000B650027D1E912540B6DA5FB036C04FB2A
:1049500003C305FB0733C1E9126335E08E4B1B68C7
:10496000022B31D18E4B5B68DAB293069B0A0B6146
:104970008B4B9B681A0E0B6943EA02230B61884B31
:104980009B68C3F307420B6913430B61844B9B681D
:10499000C3F307220B6900245D1C64414FF40076C9
:1049A0000027A5FB063C04FB06C405FB07464FF4A5
:1049B0008065A3FB054C06FB05C503FB0753C1E956
:1049C00012434FF400730B65C2F3801301F8193FD3
:1049D00093065B0E4B70724B9B68DAB24B7843EADE
:1049E000D2134B7002F07F038B706D4BDB681A0E95
:1049F000D309CB70C2F341130B71C2F382034B7125
:104A000093071B0F8B71664BDB68C3F307428B79EF
:104A100043EA92138B71C2F34013CB7100230B72E4
:104A200002F001034B725E4BDB68C3F30722D3092C
:104A30008B72C2F38013CB72C2F340130B73C2F3B9
:104A400000134B73C2F381038B7302F00303CB7328
:104A5000534BDB68DAB253080B7401234B74514B90
:104A60001B681A0ECA74A1F119014E4B1B68C3F3DF
:104A700007424FEA0223CB854A4B1B68C3F3072248
:104A8000CB8D43EA0203CB85464B1B68DAB24FEA73
:104A900002640C63434B5B684FEA13620B6B43EA9F
:104AA00002440C633F4B5B68C3F307420B6B43EA62
:104AB00002240C633B4B5B68C3F307220B6B43EA96
:104AC00002030B63374B5B68DAB24FF034035A547E
:104AD000344B9B684FEA13624FF035035A54314B05
:104AE0009B68C3F307424FEA02648C632D4B9B68BB
:104AF000C3F307228B6B43EA02448C63294B9B6808
:104B0000DAB28B6B43EA02248C63264BDB684FEAF4
:104B100013628B6B43EA02038B63224BDB68C3F3A4
:104B200007424FF03C035B5C43EA12134FF03C0436
:104B300063544FEA02734FEA1353CB87194BDB6878
:104B4000C3F30722CB8F43EA0203CB87154BDB6805
:104B5000DAB24FEA52034FF0400463544FF00104BD
:104B60004FF041035C54F0BD70B500250E48446B16
:104B700001E00D48446B14F0450FFAD014F0040F17
:104B800014D00325042003F041FA284670BD00002C
:104B90003004002048040020D4000020D800002069
:104BA000A8030020B80300200080014014F0010F8A
:104BB00005D00125012003F029FA2846E6E740F256
:104BC000FF5003F023FA2846E0E72DE9F0410646BE
:104BD0000F464FF00008F848456B01E0F648456B7A
:104BE00015F0450FFAD015F0040F07D04FF0030869
:104BF000042003F00BFA4046BDE8F08115F0010FE8
:104C000006D04FF00108012003F000FA4046F3E718
:104C100003F0A4F9B04203D04FF010084046EBE790
:104C200040F2FF5003F0F2F9002003F09BF9044634
:104C300014F4604F03D1200C38804046DCE714F4B4
:104C4000005F01D01320D7E714F4804F01D010206B
:104C5000D2E714F4004F01D00F20CDE74046CBE758
:104C600038B500240120009003F049F910B925243B
:104C7000204638BDD1480068042828D00020D049FB
:104C8000086002204860C02088600020C8604FF49F
:104C900080600861084603F047F9FFF765FF0446A6
:104CA0000CB12046E5E7002003F05CF9C549086037
:104CB000042003F057F9C3494860082003F052F973
:104CC000C04988600C2003F04DF9BE49C860BB485C
:104CD000006858B1B9480068012807D0B748006893
:104CE000062803D0B5480068022816D10020B44930
:104CF000086003204860402088600020C8604FF4AE
:104D000080600861084603F00FF969460320FFF749
:104D10005CFF04460CB12046ABE7A84800680428B5
:104D20002ED0BDF80000A8490860BDF800000004BE
:104D3000A349086009204860C02088600020C8603E
:104D40004FF480600861084603F0EEF8FFF70CFFAF
:104D500004460CB120468CE7002003F003F99B4980
:104D60000860042003F0FEF898494860082003F02A
:104D7000F9F8964988600C2003F0F4F89349C8606C
:104D80000024204675E770B500258B48446B01E090
:104D90008948446B14F0450FFAD014F0040F05D085
:104DA0000325042003F032F9284670BD40F2FF507D
:104DB00003F02CF92846F8E770B5002642F210758A
:104DC0007D48446B02E06D1E7B48446B14F0450F38
:104DD00001D1002DF7D115B114F0040F05D0032631
:104DE000042003F013F9304670BD14F0400F05D0D5
:104DF0000026402003F00AF93046F5E73046F3E795
:104E000070B5002542F2107400E0641E24B18020C9
:104E100003F0F2F80028F8D014B90325284670BD35
:104E200040F2FF5003F0F2F82846F8E72DE9F04190
:104E30000024002600250027A0467620644908703B
:104E4000002048608860C86008614861084603F037
:104E50002BF8032003F048F8012003F042F800206B
:104E60005749086048608860C8604FF480600861F6
:104E7000084603F059F8FFF7C3FF044614B1204673
:104E8000BDE8F0814FF4D5704D49086008204860B6
:104E9000402088600020C8604FF4806008610846A8
:104EA00003F042F8FFF788FF04462CB9012043497C
:104EB00008604FF0804812E0002041490860372028
:104EC0004860402088600020C8604FF4806008611E
:104ED000084603F029F83720FFF758FA0446002067
:104EE0003749086037204860402088600020C8604B
:104EF0004FF480600861084603F016F83720FFF78A
:104F000045FA0446ECBB36E000202D490860372006
:104F10004860402088600020C8604FF480600861CD
:104F2000084603F001F83720FFF730FA04460CB1C9
:104F30002046A5E7274848EA0000214908602920C3
:104F40004860402088600020C8604FF4806008619D
:104F5000084602F0E9FFFFF716FF04460CB12046B1
:104F60008EE7002002F0FEFF0646012080EAD670A0
:104F700080F001076D1C1FB94FF6FF708542C3D347
:104F800000E00DE04FF6FF70854202D31B2420465F
:104F900076E706F08040060002D00220074908604C
:104FA00020466DE710B5002402F070FFFFF73EFFCA
:104FB00004468CB1204610BD00800140D400002082
:104FC00048040020B8030020D8000020A8030020D7
:104FD0003004002000001080FFF742FE04460CB1B0
:104FE0002046E8E77620FF49087000204860886086
:104FF000C86008614861084602F056FFFA48FFF7AA
:105000000FFC044644B9F848B0F8540002041046B6
:105010000021FFF7E8FB04461CB90020FFF791FBD5
:10502000044600BF2046C6E708B50121302001F044
:1050300086FB4FF48070ADF8000003208DF802006D
:1050400018208DF803006946E84801F0E5F80420CF
:10505000ADF800006946E64801F0DEF84FF48050F4
:10506000ADF8000018208DF803006946DF4801F014
:10507000D3F80121880201F055FB0121022001F043
:1050800051FB08BD08B50121302001F058FB00207C
:1050900002F027FF002002F027FF02F0F7FE0021B8
:1050A0004FF4806001F03EFB4FF48070ADF80000DB
:1050B00004208DF803006946CC4801F0ADF80420C7
:1050C000ADF800006946CA4801F0A6F84FF48050D8
:1050D000ADF800006946C54801F09EF808BD08B566
:1050E0004FF4C06001F0B8FC31208DF800000020C2
:1050F0008DF801008DF8020001208DF8030068464C
:1051000001F0AFFC3B208DF8000000208DF801007D
:10511000684601F0A6FCFFF7B5FFFFF785FFFFF734
:1051200041FF30B9B348007820F00100B149087060
:1051300005E0B048007840F00100AE490870FFF784
:1051400023F930B9AB48007840F00400A949087051
:1051500005E0A848007820F00400A6490870A5489A
:10516000007808BD0120704700B5FFF7FBFF01285C
:1051700001D0012000BDFFF707F930B99D48007844
:1051800040F004009B49087005E09A48007820F040
:1051900004009849087097480078EBE770B504461A
:1051A000002514B92625284670BD934800680004E0
:1051B000924908600D204860402088600020C86047
:1051C0004FF480600861084602F0AEFE0D20FFF744
:1051D000DDF805460DB12846E6E7002002F0C2FEE4
:1051E00020602846E0E708B500200090FFF7BAFFEE
:1051F000012809D16846FFF7D1FF08B1FF2008BD9B
:105200000098C0F34320FAE7FF20F8E710B5042424
:10521000FFF7E9FF0446042C01D1002010BDFF2C4C
:1052200001D10220FAE70120F8E710B500240020A0
:10523000724908600C204860402088600020C860E7
:105240004FF480600861084602F06EFE0C20FFF704
:105250009DF80446204610BD70B500256C1E00E088
:10526000641E6748006838B96648006820B9664817
:10527000007808B9002CF3D1002061490860441E71
:1052800000E0641E6148406B10F4005F01D0002C08
:10529000F7D15F480068012805D1FFF7C6FF054632
:1052A00000205B4908600CB905B9042540F2FF50A5
:1052B00002F0ACFE5448007810B15348007870BD3D
:1052C0002846FCE730B58BB005460C46514801F046
:1052D00093FB0021504801F066FB4F4801F09AFA19
:1052E0004A4880300090019500200290A008039069
:1052F0000020049080200590800006908000079098
:10530000002008904FF44050099000200A90694610
:10531000414801F01DFB012202213F4801F04EFBF4
:1053200001213D4801F03FFB0BB030BD2DE9F047B6
:10533000814614461D46DDE908684FF000073846EF
:10534000314908702F4908604FF00100304908606A
:105350004FF000002D49C8624FF0010140F22A30A1
:1053600002F0D2FD08FB06F14846FFF7ABFF012033
:1053700002F0D7FD29480068022808D1060202027F
:1053800000232046294602F0FDFE04460D461B4838
:105390000660102019494860402088600020C860DD
:1053A0004FF480600861084602F0BEFD1020FEF751
:1053B000EDFF074617B13846BDE8F0874FF0FF30E4
:1053C0001749086008FB06F04860902088600220BA
:1053D000C8600020086101204861084602F0C7FD4E
:1053E00006481FE030040020D803002000100140D0
:1053F00000140140EC000020D800002048040020E8
:10540000E8000020E4000020E000002000800140CF
:10541000DC00002000F0001044040240D400002012
:105420005C04002004601220FE494860402088602F
:105430000020C8604FF480600861084602F074FDE7
:105440001220FEF7A3FF07460FB13846B4E73846EF
:10545000B2E72DE9F041804614461D46069E4FF006
:1054600000073846F0490870F0490860F0490860C4
:10547000F049C8624FF0010140F22A3002F044FDC9
:10548000012002F04EFD31464046FFF71BFFEA487F
:105490000068022808D1060202020023204629469D
:1054A00002F070FE04460D46DE4806601020DD491D
:1054B0004860402088600020C8604FF48060086128
:1054C000084602F031FD1020FEF760FF074617B1D5
:1054D0003846BDE8F0814FF0FF30D84908600846F3
:1054E0004660902088600220C8600020086101208A
:1054F0004861084602F03BFDCA4804601120C949D2
:105500004860402088600020C8604FF480600861D7
:10551000084602F009FD1120FEF738FF07460FB1DB
:105520003846D6E73846D4E72DE9FC4106460C4616
:1055300015460027C248007810F0010F02D0032062
:10554000BDE8FC81012D08D16B0261020A4600937F
:1055500000233046FFF77DFF09E04FF4007261023F
:10556000CDE900250A4600233046FFF7DFFEFFF7AE
:1055700073FE074600BFFFF749FE0028FBD107B9BD
:10558000DEE70120DCE770B500256C1E00E0641E3C
:10559000AC48006838B9A548006820B9A24800782E
:1055A00008B9002CF3D10020A6490860441E00E091
:1055B000641EA048406B10F4805F01D0002CF7D12E
:1055C0009B480068012805D1FFF72FFE0546002003
:1055D000974908600CB905B9042540F2FF5002F064
:1055E00015FD9148007810B18F48007870BD2846AD
:1055F000FCE730B58BB005460C46934801F0FCF94A
:105600000021924801F0CFF9904801F003F9894850
:1056100080300090019510200290A0080390002097
:105620000490802005908000069080000790002064
:1056300008904FF44050099000200A906946834832
:1056400001F086F901220221804801F0B7F9012119
:105650007E4801F0A8F90BB030BD2DE9F047814636
:1056600014461D46DDE908784FF0000630466E49C5
:1056700008706E4908604FF001006D4908604FF0F6
:1056800000006C49C8624FF0FF306C4908604FF071
:10569000000048608860C86008614861084602F000
:1056A00066FC002002F03DFC002002F05BFC10F0E4
:1056B000007F03D00E263046BDE8F087012140F27E
:1056C0001A3002F021FC08FB07F14846FFF791FF72
:1056D000012002F026FC58480068022808D1070281
:1056E000020200232046294602F04CFD04460D46E6
:1056F0004C48076010204B494860402088600020DB
:10570000C8604FF480600861084602F00DFC10206C
:10571000FEF73CFE06460EB13046CDE74C48006829
:10572000000440490860372048604020886000201D
:10573000C8604FF480600861084602F0F5FB37202E
:10574000FEF724FE06460EB13046B5E73548C0F8F0
:105750000080172033494860402088600020C860DE
:105760004FF480600861084602F0DEFB1720FEF768
:105770000DFE06460EB130469EE72A480460192009
:1057800028494860402088600020C8604FF480604D
:105790000861084602F0C8FB1920FEF7F7FD06462F
:1057A0000EB1304688E74FF0FF302449086008FB0F
:1057B00007F04860902088600020C86008610120E0
:1057C0004861084602F0D3FB304675E72DE9F04109
:1057D000804614461D46069E4FF000073846124983
:1057E000087012490860124908601249C8624FF0F7
:1057F000FF30124908604FF0000048608860C860C0
:1058000008614861084602F0B2FB002002F089FB03
:10581000002002F0A7FB10F0007F1BD00E273846B7
:10582000BDE8F08148040020E0000020E4000020F2
:10583000DC00002000800140D40000205C04002037
:10584000EC000020E800002000F0001044040240BA
:10585000D8000020012140F22A3002F055FB3146E9
:105860004046FFF7C6FE012002F05BFBFF480068E0
:10587000022808D10602020200232046294602F02F
:1058800081FC04460D46FA4806601020F84948603D
:10589000402088600020C8604FF48060086108469E
:1058A00002F042FB1020FEF771FD074617B13846A3
:1058B000BDE8F081EE4804601820ED4948604020C2
:1058C00088600020C8604FF480600861084602F0DC
:1058D0002BFB1820FEF75AFD07460FB13846E7E7C5
:1058E0004FF0FF30E349086008464660902088602A
:1058F0000020C860086101204861084602F037FBBB
:105900003846D5E72DE9FC4106460C4615460027EA
:10591000FEF73AFD10B90220BDE8FC81012D08D147
:105920006B0261020A46009300233046FFF74EFFE8
:1059300009E04FF400726102CDE900250A46002318
:105940003046FFF78AFEFFF71EFE074600BFFFF74F
:105950005DFC0028FBD107B9DEE70120DCE7024649
:105960006AB1022A04D0032A06D0042A09D107E02A
:105970004FF40070088004E02020086001E000BFC0
:1059800000BF00BF0020704710B54FF4807002F0D8
:1059900040FB50B10020B84908704FF4807002F00D
:1059A00042FB0120B549086037E0022002F031FBDC
:1059B00030B1022002F037FB0220AF4908702CE022
:1059C000082002F026FB30B1082002F02CFB042056
:1059D000A949087021E0202002F01BFB30B12020F3
:1059E00002F021FB0620A449087016E0102002F006
:1059F00010FB30B1102002F016FB05209E49087004
:105A00000BE04FF4007002F004FB30B14FF4007073
:105A100002F009FB07209849087000214CF23A3047
:105A200002F072FA9448007810BD10B5FFF7ACFF91
:105A300010BD10B5924800F0E8FF28B1904800F082
:105A4000F5FF01208F49086010BD10B5FFF7F1FF89
:105A500010BD10B5FFF716FB10BD10B500240020D7
:105A600002F042FA204610BD70B50446002600251B
:105A7000002002F077FA10F0007F02D00E263046A8
:105A800070BD40207A49086010204860402088603E
:105A90000020C8604FF480600861084602F044FAB4
:105AA0001020FEF773FC06460EB13046E8E7764854
:105AB000006800046E490860372048604020886014
:105AC0000020C8604FF480600861084602F02CFA9C
:105AD0003720FEF75BFC06460EB13046D0E74FF0AC
